{
  "contractName": "SmartContractProject",
  "abi": [
    {
      "inputs": [
        {
          "internalType": "uint256",
          "name": "_amount",
          "type": "uint256"
        }
      ],
      "name": "withdraw",
      "outputs": [],
      "stateMutability": "payable",
      "type": "function",
      "payable": true
    },
    {
      "inputs": [
        {
          "internalType": "uint256",
          "name": "_value",
          "type": "uint256"
        },
        {
          "internalType": "uint256",
          "name": "_minValue",
          "type": "uint256"
        }
      ],
      "name": "assertExample",
      "outputs": [
        {
          "internalType": "uint256",
          "name": "",
          "type": "uint256"
        }
      ],
      "stateMutability": "pure",
      "type": "function",
      "constant": true
    },
    {
      "inputs": [
        {
          "internalType": "uint256",
          "name": "_input",
          "type": "uint256"
        }
      ],
      "name": "revertExample",
      "outputs": [
        {
          "internalType": "uint256",
          "name": "",
          "type": "uint256"
        }
      ],
      "stateMutability": "pure",
      "type": "function",
      "constant": true
    }
  ],
  "bytecode": "0x608060405234801561001057600080fd5b506104a5806100206000396000f3fe6080604052600436106100345760003560e01c80632e1a7d4d14610039578063533cb97414610055578063fa53bf6a14610092575b600080fd5b610053600480360381019061004e919061021b565b6100cf565b005b34801561006157600080fd5b5061007c6004803603810190610077919061021b565b61015c565b6040516100899190610257565b60405180910390f35b34801561009e57600080fd5b506100b960048036038101906100b49190610272565b6101b4565b6040516100c69190610257565b60405180910390f35b47811115610112576040517f08c379a00000000000000000000000000000000000000000000000000000000081526004016101099061030f565b60405180910390fd5b3373ffffffffffffffffffffffffffffffffffffffff166108fc829081150290604051600060405180830381858888f19350505050158015610158573d6000803e3d6000fd5b5050565b60008082036101a0576040517f08c379a00000000000000000000000000000000000000000000000000000000081526004016101979061037b565b60405180910390fd5b6002826101ad91906103ca565b9050919050565b60008082846101c3919061040c565b9050838110156101d6576101d5610440565b5b8091505092915050565b600080fd5b6000819050919050565b6101f8816101e5565b811461020357600080fd5b50565b600081359050610215816101ef565b92915050565b600060208284031215610231576102306101e0565b5b600061023f84828501610206565b91505092915050565b610251816101e5565b82525050565b600060208201905061026c6000830184610248565b92915050565b60008060408385031215610289576102886101e0565b5b600061029785828601610206565b92505060206102a885828601610206565b9150509250929050565b600082825260208201905092915050565b7f496e73756666696369656e742062616c616e6365000000000000000000000000600082015250565b60006102f96014836102b2565b9150610304826102c3565b602082019050919050565b60006020820190508181036000830152610328816102ec565b9050919050565b7f496e7075742073686f756c64206e6f74206265207a65726f0000000000000000600082015250565b60006103656018836102b2565b91506103708261032f565b602082019050919050565b6000602082019050818103600083015261039481610358565b9050919050565b7f4e487b7100000000000000000000000000000000000000000000000000000000600052601160045260246000fd5b60006103d5826101e5565b91506103e0836101e5565b92508282026103ee816101e5565b915082820484148315176104055761040461039b565b5b5092915050565b6000610417826101e5565b9150610422836101e5565b925082820190508082111561043a5761043961039b565b5b92915050565b7f4e487b7100000000000000000000000000000000000000000000000000000000600052600160045260246000fdfea26469706673582212209c529adb5c4dc87822108c17662d34b22449244a62d4e7197e4fcafe7f5558e064736f6c63430008110033",
  "immutableReferences": {},
  "source": "// SPDX-License-Identifier: MIT\npragma solidity ^0.8.17;\n\ncontract SmartContractProject {\n    // Function that uses require statement\n    function withdraw(uint256 _amount) public payable {\n        require(_amount <= address(this).balance, \"Insufficient balance\");\n        payable(msg.sender).transfer(_amount);\n    }\n\n    // Function that uses assert statement\n    function assertExample(uint256 _value, uint256 _minValue) public pure returns (uint256) {\n        uint256 result = _value + _minValue;\n        assert(result >= _value);\n        return result;\n    }\n\n    // Function that uses revert statement\n    function revertExample(uint256 _input) public pure returns (uint256) {\n        require(_input != 0, \"Input should not be zero\");\n        return _input * 2;\n    }\n}\n",
  "sourcePath": "/workspace/solidity_starter/contracts/SmartContractProject.sol",
  "compiler": {
    "name": "solc",
    "version": "0.8.17+commit.8df45f5f.Emscripten.clang"
  },
  "schemaVersion": "3.4.16",
  "updatedAt": "2024-04-03T07:19:39.525Z",
  "networkType": "ethereum",
  "devdoc": {
    "kind": "dev",
    "methods": {},
    "version": 1
  },
  "userdoc": {
    "kind": "user",
    "methods": {},
    "version": 1
  }
}